34100000         215665528000157                    00000 000000000000  CARGO POLO C L T EIRELI       BANCO ITAU S.A.                         207122023042949000004084                                                                          
34100011I0300022 2015665528000157                    00000 000000000000  CARGO POLO C L T EIRELI                                                                                                                                                
3410001300001G 02033919456001391416490140696000000197314201012003112879000151SASCAR TECNOLOGIA E SEGURANCA 2808202300000001391416400000000000000009A 00687170     000000          10210082023000000000000100 00000000000000000000000000051220233
3410001300002H 020000000000000000                                         00000000000000000000000 00000000000000000000000129082023000000000278283000000000000000                                                                                
3410001300003G 02237989494000002270705240913327002784004173902003485319000142SANTABIER                     0510202300000000002270700000000000000009S000002469     000000          10228092023000000000000000 00000000000000000000000000041220235
3410001300004H 020000000000000000                                         00000000000000000000000 00000000000000000000000301010001000000000000000000000000000000                                                                                
3410001300005G 02341989540000857541302304471579700000000000002017192451000170BANCO ITAUCARD S.A.           2011202300000000857541300000000000000009               000000          19929092023000000000000194 00000000000000000000000000190120243
3410001300006H 020000000000000000                                         00000000000000000000000 00000000000000000000000121112023000000000000200000000000000000                                                                                
3410001300007G 02341919540000131384702577978874100000000000002017192451000170BANCO ITAUCARD S.A.           2011202300000000131384700000000000000009               000000          19929092023000000000000182 00000000000000000000000000190120243
3410001300008H 020000000000000000                                         00000000000000000000000 00000000000000000000000121112023000000000000200000000000000000                                                                                
3410001300009G 31033929550000062000090029172000000000051701012039523037000130ANDERSON LUIS ALVES ESTACIONAM30112023000000000620000000000000000000090              000000          10224112023000000000001000 00000000000000000000000000280520243
3410001300010H 310000000000000000                                         00000000000000000000000 00000000000000000000000102122023000000000049600000000000000000                                                                                
3410001300011G 02341949556000861116087139681774820400130920002017192451000170BANCO ITAUCARD S/A            0612202300000000861116000000000000000009               020404          19906122023000000000000000 00000000000000000000000000061220235
3410001300012H 022015665528000157CARGO POLO C L T EIRELI                  00000000000000000000000 00000000000000000000000301010001000000000000000000000000000000                                                                                
3410001300013G 01341949556000861116087139681774820400130920002017192451000170BANCO ITAUCARD S/A            0612202300000000861116000000000000000009               020404          19906122023000000000000000 00000000000000000000000000061220235
3410001300014H 012015665528000157CARGO POLO C L T EIRELI                  00000000000000000000000 00000000000000000000000301010001000000000000000000000000000000                                                                                
3410001300015G 02001919556000005165000000016150420000021667172009203706000125BR CARRETAS COMERCIO DE PECAS 0612202300000000005165000000000000000009149744.02      000000          10226102023000000000000017 00000000000000000000000000050120241
3410001300016H 020000000000000000                                         00000000000000000000000 00000000000000000000000208122023000000000000100000000000000000                                                                                
3410001300017G 02748999556000011165611232155180081007023041002017988730000145CARAMORI COMERCIO DE CAMINHOES06122023000000000111656000000000000000090000260030     000000          10310112023000000000000037 00000000000000000000000000031220331
3410001300018H 020000000000000000                                         00000000000000000000000 00000000000000000000000207122023000000000000200000000000000000                                                                                
3410001300019G 02748919556000003530311232155210081007023041032017988730000145CARAMORI COMERCIO DE CAMINHOES06122023000000000035303000000000000000090000260034     000000          10310112023000000000000012 00000000000000000000000000031220331
3410001300020H 020000000000000000                                         00000000000000000000000 00000000000000000000000207122023000000000000200000000000000000                                                                                
3410001300021G 02237969556000016082604900904900012919002217702066944158000128CASA DO OLEO RIBEIRAO PRETO LT061220230000000001608260000000000000000915611-1        000000          10213112023000000000000434 00000000000000000000000000040220241
3410001300022H 020000000000000000                                         00000000000000000000000 00000000000000000000000207122023000000000000200000000000000000                                                                                
3410001300023G 02237979556000003100004900904900012970002217702066944158000128CASA DO OLEO RIBEIRAO PRETO LT061220230000000000310000000000000000000915671-1        000000          10213112023000000000000084 00000000000000000000000000040220241
3410001300024H 020000000000000000                                         00000000000000000000000 00000000000000000000000207122023000000000000200000000000000000                                                                                
3410001300025G 02237969556000030060504260992000886440030130202014117458000130CEABS SERVICOS S.A.           0612202300000000030060500000000000000009000000001      000000          10207112023000000000000000 00000000000000000000000000040220245
3410001300026H 020000000000000000                                         00000000000000000000000 00000000000000000000000301010001000000000000000000000000000000                                                                                
3410001300027G 02237919556000055526004260992000886441030130202014117458000130CEABS SERVICOS S.A.           0612202300000000055526000000000000000009000000001      000000          10207112023000000000000000 00000000000000000000000000040220245
3410001300028H 020000000000000000                                         00000000000000000000000 00000000000000000000000301010001000000000000000000000000000000                                                                                
3410001300029G 02001919556000000781000000030430449015293878172004892707000100DNIT.DEPARTAMENTO NACIONAL DE 0612202300000000000781000000000000000009               000000          10404122023000000000000000 00000000000000000000000000061220235
3410001300030H 020000000000000000                                         00000000000000000000000 00000000000000000000000301010001000000000000000000000000000000                                                                                
3410001300031G 02001989556000000781000000030430449015294249172004892707000100DNIT.DEPARTAMENTO NACIONAL DE 0612202300000000000781000000000000000009               000000          10404122023000000000000000 00000000000000000000000000061220235
3410001300032H 020000000000000000                                         00000000000000000000000 00000000000000000000000301010001000000000000000000000000000000                                                                                
3410001300033G 02001919556000001561900000030430449015293861172004892707000100DNIT.DEPARTAMENTO NACIONAL DE 0612202300000000001561900000000000000009               000000          10404122023000000000000000 00000000000000000000000000061220235
3410001300034H 020000000000000000                                         00000000000000000000000 00000000000000000000000301010001000000000000000000000000000000                                                                                
3410001300035G 02001939556000001171400000030430449015294265172004892707000100DNIT.DEPARTAMENTO NACIONAL DE 0612202300000000001171400000000000000009               000000          10404122023000000000000000 00000000000000000000000000061220235
3410001300036H 020000000000000000                                         00000000000000000000000 00000000000000000000000301010001000000000000000000000000000000                                                                                
3410001300037G 02756959556000057021013214016098053000023350012049782513000190EPICAM EQUIPAMENTOS DE PROTECA061220230000000005702100000000000000000900015112       000000          10206112023000000000000800 00000000000000000000000000181220233
3410001300038H 020000000000000000                                         00000000000000000000000 00000000000000000000000207122023000000000000200000000000000000                                                                                
3410001300039G 02033919556000003290090148855000000000011201012041450435000115FR BAUS COMERCIO DE PECAS E RE0612202300000000003290000000000000000009369            000000          10206112023000000000000000 00000000000000000000000000030620245
3410001300040H 020000000000000000                                         00000000000000000000000 00000000000000000000000301010001000000000000000000000000000000                                                                                
3410001300041G 02033989556000064700090148855000000000011301012041450435000115FR BAUS COMERCIO DE PECAS E RE0612202300000000064700000000000000000009370            000000          10206112023000000000000000 00000000000000000000000000030620245
3410001300042H 020000000000000000                                         00000000000000000000000 00000000000000000000000301010001000000000000000000000000000000                                                                                
3410001300043G 02748919556000012450011232922321220702266891072007399498000156J L NOBREGA INDUSTRIA COMERCIO06122023000000000124500000000000000000090000019223     000000          10306112023000000000001260 00000000000000000000000000031220333
3410001300044H 020000000000000000                                         00000000000000000000000 00000000000000000000000207122023000000000000100000000000000000                                                                                
3410001300045G 02033919556000004074490338158000000031103001012011623920000182VANNUCCI IMPORTACAO, EXPORTACA0612202300000000004074400000000000000009129302101      000000          10210112023000000000001001 00000000000000000000000000030620243
3410001300046H 020000000000000000                                         00000000000000000000000 00000000000000000000000108122023000000000000815000000000000000                                                                                
3410001300047G 31341989558000026903710900000135505539960260002022022732000115CAFE EAD TREINAMENTOS E INFORM08122023000000000269037000000000000000090000000212     005538          10109112023000000000000529 00000000000000000000000000081220231
3410001300048H 310000000000000000                                         00000000000000000000000 00000000000000000000000 00000000000000000000000000000000000000                                                                                
3410001300049G 01104919558000015041869598309091810400988794562005349595000109CAIXA CONSORCIOS S.A. ADMINIST08122023000000000150418000000000000000094025607999     000000          12206122023000000000000000 00000000000000000000000000101220235
3410001300050H 010000000000000000                                         00000000000000000000000 00000000000000000000000301010001000000000000000000000000000000                                                                                
3410001300051G 01104959558000007191069598309091810400988797742005349595000109CAIXA CONSORCIOS S.A. ADMINIST08122023000000000071910000000000000000094025608135     000000          12206122023000000000000000 00000000000000000000000000101220235
3410001300052H 010000000000000000                                         00000000000000000000000 00000000000000000000000301010001000000000000000000000000000000                                                                                
3410001300053G 01104919558000008607069598309091810400988798632005349595000109CAIXA CONSORCIOS S.A. ADMINIST08122023000000000086070000000000000000094025608202     000000          12206122023000000000000000 00000000000000000000000000101220235
3410001300054H 010000000000000000                                         00000000000000000000000 00000000000000000000000301010001000000000000000000000000000000                                                                                
3410001300055G 01104929558000008607069598309091810400988799522005349595000109CAIXA CONSORCIOS S.A. ADMINIST08122023000000000086070000000000000000094025608177     000000          12206122023000000000000000 00000000000000000000000000101220235
3410001300056H 010000000000000000                                         00000000000000000000000 00000000000000000000000301010001000000000000000000000000000000                                                                                
3410001300057G 01104969558000004925869598309091810400988818332005349595000109CAIXA CONSORCIOS S.A. ADMINIST08122023000000000049258000000000000000094032097101     000000          12206122023000000000000000 00000000000000000000000000101220235
3410001300058H 010000000000000000                                         00000000000000000000000 00000000000000000000000301010001000000000000000000000000000000                                                                                
3410001300059G 01104939558000005198769598309091810400988821392005349595000109CAIXA CONSORCIOS S.A. ADMINIST08122023000000000051987000000000000000094025609612     000000          12206122023000000000000000 00000000000000000000000000101220235
3410001300060H 010000000000000000                                         00000000000000000000000 00000000000000000000000301010001000000000000000000000000000000                                                                                
3410001300061G 01104929558000009859669598309091810400988796422005349595000109CAIXA CONSORCIOS S.A. ADMINIST08122023000000000098596000000000000000094025608099     000000          12206122023000000000000000 00000000000000000000000000101220235
3410001300062H 010000000000000000                                         00000000000000000000000 00000000000000000000000301010001000000000000000000000000000000                                                                                
3410001300063G 01104919558000006140769598309091810400988822362005349595000109CAIXA CONSORCIOS S.A. ADMINIST08122023000000000061407000000000000000094025609680     000000          12206122023000000000000000 00000000000000000000000000101220235
3410001300064H 010000000000000000                                         00000000000000000000000 00000000000000000000000301010001000000000000000000000000000000                                                                                
3410001300065G 01104979558000002252169598309091810400988822522005349595000109CAIXA CONSORCIOS S.A. ADMINIST08122023000000000022521000000000000000094025609555     000000          12206122023000000000000000 00000000000000000000000000101220235
3410001300066H 010000000000000000                                         00000000000000000000000 00000000000000000000000301010001000000000000000000000000000000                                                                                
3410001300067G 01104939558000009540569598309091810400988795022005349595000109CAIXA CONSORCIOS S.A. ADMINIST08122023000000000095405000000000000000094025608041     000000          12206122023000000000000000 00000000000000000000000000101220235
3410001300068H 010000000000000000                                         00000000000000000000000 00000000000000000000000301010001000000000000000000000000000000                                                                                
3410001300069G 01104919558000014589769598309091810400988796002005349595000109CAIXA CONSORCIOS S.A. ADMINIST08122023000000000145897000000000000000094025608062     000000          12206122023000000000000000 00000000000000000000000000101220235
3410001300070H 010000000000000000                                         00000000000000000000000 00000000000000000000000301010001000000000000000000000000000000                                                                                
3410001300071G 01104979558000006191469598309091810400988823682005349595000109CAIXA CONSORCIOS S.A. ADMINIST08122023000000000061914000000000000000094025609770     000000          12206122023000000000000000 00000000000000000000000000101220235
3410001300072H 010000000000000000                                         00000000000000000000000 00000000000000000000000301010001000000000000000000000000000000                                                                                
3410001300073G 01104989558000006191469598309091810400988824572005349595000109CAIXA CONSORCIOS S.A. ADMINIST08122023000000000061914000000000000000094025609833     000000          12206122023000000000000000 00000000000000000000000000101220235
3410001300074H 010000000000000000                                         00000000000000000000000 00000000000000000000000301010001000000000000000000000000000000                                                                                
3410001300075G 01104939558000013671169598309091810400988801102005349595000109CAIXA CONSORCIOS S.A. ADMINIST08122023000000000136711000000000000000094025608370     000000          12206122023000000000000000 00000000000000000000000000101220235
3410001300076H 010000000000000000                                         00000000000000000000000 00000000000000000000000301010001000000000000000000000000000000                                                                                
3410001300077G 01104949558000008607069598309091810400988798982005349595000109CAIXA CONSORCIOS S.A. ADMINIST08122023000000000086070000000000000000094025608213     000000          12206122023000000000000000 00000000000000000000000000101220235
3410001300078H 010000000000000000                                         00000000000000000000000 00000000000000000000000301010001000000000000000000000000000000                                                                                
3410001300079G 01104989558000008516169598309091810400988802252005349595000109CAIXA CONSORCIOS S.A. ADMINIST08122023000000000085161000000000000000094025608431     000000          12206122023000000000000000 00000000000000000000000000101220235
3410001300080H 010000000000000000                                         00000000000000000000000 00000000000000000000000301010001000000000000000000000000000000                                                                                
3410001300081G 01104979558000006191469598309091810400988826002005349595000109CAIXA CONSORCIOS S.A. ADMINIST08122023000000000061914000000000000000094025609893     000000          12206122023000000000000000 00000000000000000000000000101220235
3410001300082H 010000000000000000                                         00000000000000000000000 00000000000000000000000301010001000000000000000000000000000000                                                                                
3410001300083G 01104919558000007431369598309091810400988800392005349595000109CAIXA CONSORCIOS S.A. ADMINIST08122023000000000074313000000000000000094025608325     000000          12206122023000000000000000 00000000000000000000000000101220235
3410001300084H 010000000000000000                                         00000000000000000000000 00000000000000000000000301010001000000000000000000000000000000                                                                                
3410001300085G 01104919558000006191469598309091810400988827242005349595000109CAIXA CONSORCIOS S.A. ADMINIST08122023000000000061914000000000000000094025609927     000000          12206122023000000000000000 00000000000000000000000000101220235
3410001300086H 010000000000000000                                         00000000000000000000000 00000000000000000000000301010001000000000000000000000000000000                                                                                
3410001300087G 01104919558000006191469598309091810400988828052005349595000109CAIXA CONSORCIOS S.A. ADMINIST08122023000000000061914000000000000000094032097078     000000          12206122023000000000000000 00000000000000000000000000101220235
3410001300088H 010000000000000000                                         00000000000000000000000 00000000000000000000000301010001000000000000000000000000000000                                                                                
3410001300089G 01104919558000007376169598309091810400988817282005349595000109CAIXA CONSORCIOS S.A. ADMINIST08122023000000000073761000000000000000094025609345     000000          12206122023000000000000000 00000000000000000000000000101220235
3410001300090H 010000000000000000                                         00000000000000000000000 00000000000000000000000301010001000000000000000000000000000000                                                                                
3410001300091G 01104969558000007498469598309091810400988820902005349595000109CAIXA CONSORCIOS S.A. ADMINIST08122023000000000074984000000000000000094025609592     000000          12206122023000000000000000 00000000000000000000000000101220235
3410001300092H 010000000000000000                                         00000000000000000000000 00000000000000000000000301010001000000000000000000000000000000                                                                                
3410001300093G 01104919558000006140769598309091810400988822442005349595000109CAIXA CONSORCIOS S.A. ADMINIST08122023000000000061407000000000000000094025609667     000000          12206122023000000000000000 00000000000000000000000000101220235
3410001300094H 010000000000000000                                         00000000000000000000000 00000000000000000000000301010001000000000000000000000000000000                                                                                
3410001300095G 01104959558000006068369598309091810400988825462005349595000109CAIXA CONSORCIOS S.A. ADMINIST08122023000000000060683000000000000000094025609873     000000          12206122023000000000000000 00000000000000000000000000101220235
3410001300096H 010000000000000000                                         00000000000000000000000 00000000000000000000000301010001000000000000000000000000000000                                                                                
3410001300097G 01104929558000004902769598309091810400988828482005349595000109CAIXA CONSORCIOS S.A. ADMINIST08122023000000000049027000000000000000094025610021     000000          12206122023000000000000000 00000000000000000000000000101220235
3410001300098H 010000000000000000                                         00000000000000000000000 00000000000000000000000301010001000000000000000000000000000000                                                                                
3410001300099G 01104959558000007949969598309091810400988829372005349595000109CAIXA CONSORCIOS S.A. ADMINIST08122023000000000079499000000000000000094025610048     000000          12206122023000000000000000 00000000000000000000000000101220235
3410001300100H 010000000000000000                                         00000000000000000000000 00000000000000000000000301010001000000000000000000000000000000                                                                                
3410001300101G 01104929558000004020769598309091810400988829532005349595000109CAIXA CONSORCIOS S.A. ADMINIST08122023000000000040207000000000000000094025610055     000000          12206122023000000000000000 00000000000000000000000000101220235
3410001300102H 010000000000000000                                         00000000000000000000000 00000000000000000000000301010001000000000000000000000000000000                                                                                
3410001300103G 01104949558000011494769598309091810400988795702005349595000109CAIXA CONSORCIOS S.A. ADMINIST08122023000000000114947000000000000000094025608057     000000          12206122023000000000000000 00000000000000000000000000101220235
3410001300104H 010000000000000000                                         00000000000000000000000 00000000000000000000000301010001000000000000000000000000000000                                                                                
3410001300105G 01104999558000008047569598309091810400988798202005349595000109CAIXA CONSORCIOS S.A. ADMINIST08122023000000000080475000000000000000094025608146     000000          12206122023000000000000000 00000000000000000000000000101220235
3410001300106H 010000000000000000                                         00000000000000000000000 00000000000000000000000301010001000000000000000000000000000000                                                                                
3410001300107G 01104919558000008047569598309091810400988798472005349595000109CAIXA CONSORCIOS S.A. ADMINIST08122023000000000080475000000000000000094025608165     000000          12206122023000000000000000 00000000000000000000000000101220235
3410001300108H 010000000000000000                                         00000000000000000000000 00000000000000000000000301010001000000000000000000000000000000                                                                                
3410001300109G 01104959558000040568369598309091810400988800712005349595000109CAIXA CONSORCIOS S.A. ADMINIST08122023000000000405683000000000000000094025608347     000000          12206122023000000000000000 00000000000000000000000000101220235
3410001300110H 010000000000000000                                         00000000000000000000000 00000000000000000000000301010001000000000000000000000000000000                                                                                
3410001300111G 01104989558000013671169598309091810400988801442005349595000109CAIXA CONSORCIOS S.A. ADMINIST08122023000000000136711000000000000000094025608392     000000          12206122023000000000000000 00000000000000000000000000101220235
3410001300112H 010000000000000000                                         00000000000000000000000 00000000000000000000000301010001000000000000000000000000000000                                                                                
3410001300113G 01104979558000006034269598309091810400988801872005349595000109CAIXA CONSORCIOS S.A. ADMINIST08122023000000000060342000000000000000094025608378     000000          12206122023000000000000000 00000000000000000000000000101220235
3410001300114H 010000000000000000                                         00000000000000000000000 00000000000000000000000301010001000000000000000000000000000000                                                                                
3410001300115G 01104999558000005872069598309091810400988812802005349595000109CAIXA CONSORCIOS S.A. ADMINIST08122023000000000058720000000000000000094025609173     000000          12206122023000000000000000 00000000000000000000000000101220235
3410001300116H 010000000000000000                                         00000000000000000000000 00000000000000000000000301010001000000000000000000000000000000                                                                                
3410001300117G 01104949558000007376169598309091810400988814262005349595000109CAIXA CONSORCIOS S.A. ADMINIST08122023000000000073761000000000000000094025609205     000000          12206122023000000000000000 00000000000000000000000000101220235
3410001300118H 010000000000000000                                         00000000000000000000000 00000000000000000000000301010001000000000000000000000000000000                                                                                
3410001300119G 01104959558000008428869598309091810400988814932005349595000109CAIXA CONSORCIOS S.A. ADMINIST08122023000000000084288000000000000000094025609252     000000          12206122023000000000000000 00000000000000000000000000101220235
3410001300120H 010000000000000000                                         00000000000000000000000 00000000000000000000000301010001000000000000000000000000000000                                                                                
3410001300121G 01104979558000007573869598309091810400988816042005349595000109CAIXA CONSORCIOS S.A. ADMINIST08122023000000000075738000000000000000094025609276     000000          12206122023000000000000000 00000000000000000000000000101220235
3410001300122H 010000000000000000                                         00000000000000000000000 00000000000000000000000301010001000000000000000000000000000000                                                                                
3410001300123G 01104979558000005198769598309091810400988818762005349595000109CAIXA CONSORCIOS S.A. ADMINIST08122023000000000051987000000000000000094025609440     000000          12206122023000000000000000 00000000000000000000000000101220235
3410001300124H 010000000000000000                                         00000000000000000000000 00000000000000000000000301010001000000000000000000000000000000                                                                                
3410001300125G 01104949558000007695669598309091810400988820402005349595000109CAIXA CONSORCIOS S.A. ADMINIST08122023000000000076956000000000000000094025609571     000000          12206122023000000000000000 00000000000000000000000000101220235
3410001300126H 010000000000000000                                         00000000000000000000000 00000000000000000000000301010001000000000000000000000000000000                                                                                
3410001300127G 01104959558000005198769598309091810400988821552005349595000109CAIXA CONSORCIOS S.A. ADMINIST08122023000000000051987000000000000000094025609635     000000          12206122023000000000000000 00000000000000000000000000101220235
3410001300128H 010000000000000000                                         00000000000000000000000 00000000000000000000000301010001000000000000000000000000000000                                                                                
3410001300129G 01104999558000006373169598309091810400988822012005349595000109CAIXA CONSORCIOS S.A. ADMINIST08122023000000000063731000000000000000094025609646     000000          12206122023000000000000000 00000000000000000000000000101220235
3410001300130H 010000000000000000                                         00000000000000000000000 00000000000000000000000301010001000000000000000000000000000000                                                                                
3410001300131G 01104919558000006140769598309091810400988822282005349595000109CAIXA CONSORCIOS S.A. ADMINIST08122023000000000061407000000000000000094025609663     000000          12206122023000000000000000 00000000000000000000000000101220235
3410001300132H 010000000000000000                                         00000000000000000000000 00000000000000000000000301010001000000000000000000000000000000                                                                                
3410001300133G 01104919558000007515369598309091810400988822602005349595000109CAIXA CONSORCIOS S.A. ADMINIST08122023000000000075153000000000000000094025609700     000000          12206122023000000000000000 00000000000000000000000000101220235
3410001300134H 010000000000000000                                         00000000000000000000000 00000000000000000000000301010001000000000000000000000000000000                                                                                
3410001300135G 01104969558000004145369598309091810400988829022005349595000109CAIXA CONSORCIOS S.A. ADMINIST08122023000000000041453000000000000000094025610028     000000          12206122023000000000000000 00000000000000000000000000101220235
3410001300136H 010000000000000000                                         00000000000000000000000 00000000000000000000000301010001000000000000000000000000000000                                                                                
3410001300137G 01104949558000008607069598309091810400988799792005349595000109CAIXA CONSORCIOS S.A. ADMINIST08122023000000000086070000000000000000094025608270     000000          12206122023000000000000000 00000000000000000000000000101220235
3410001300138H 010000000000000000                                         00000000000000000000000 00000000000000000000000301010001000000000000000000000000000000                                                                                
3410001300139G 01104939558000007431369598309091810400988799952005349595000109CAIXA CONSORCIOS S.A. ADMINIST08122023000000000074313000000000000000094025608275     000000          12206122023000000000000000 00000000000000000000000000101220235
3410001300140H 010000000000000000                                         00000000000000000000000 00000000000000000000000301010001000000000000000000000000000000                                                                                
3410001300141G 01104989558000007431369598309091810400988800042005349595000109CAIXA CONSORCIOS S.A. ADMINIST08122023000000000074313000000000000000094025608310     000000          12206122023000000000000000 00000000000000000000000000101220235
3410001300142H 010000000000000000                                         00000000000000000000000 00000000000000000000000301010001000000000000000000000000000000                                                                                
3410001300143G 01104949558000008428869598309091810400988815662005349595000109CAIXA CONSORCIOS S.A. ADMINIST08122023000000000084288000000000000000094025609271     000000          12206122023000000000000000 00000000000000000000000000101220235
3410001300144H 010000000000000000                                         00000000000000000000000 00000000000000000000000301010001000000000000000000000000000000                                                                                
3410001300145G 01104919558000007376169598309091810400988818092005349595000109CAIXA CONSORCIOS S.A. ADMINIST08122023000000000073761000000000000000094025609403     000000          12206122023000000000000000 00000000000000000000000000101220235
3410001300146H 010000000000000000                                         00000000000000000000000 00000000000000000000000301010001000000000000000000000000000000                                                                                
3410001300147G 01104959558000005198769598309091810400988820742005349595000109CAIXA CONSORCIOS S.A. ADMINIST08122023000000000051987000000000000000094025609590     000000          12206122023000000000000000 00000000000000000000000000101220235
3410001300148H 010000000000000000                                         00000000000000000000000 00000000000000000000000301010001000000000000000000000000000000                                                                                
3410001300149G 01104959558000006373169598309091810400988821982005349595000109CAIXA CONSORCIOS S.A. ADMINIST08122023000000000063731000000000000000094025609643     000000          12206122023000000000000000 00000000000000000000000000101220235
3410001300150H 010000000000000000                                         00000000000000000000000 00000000000000000000000301010001000000000000000000000000000000                                                                                
3410001300151G 01104989558000006191469598309091810400988822952005349595000109CAIXA CONSORCIOS S.A. ADMINIST08122023000000000061914000000000000000094025609707     000000          12206122023000000000000000 00000000000000000000000000101220235
3410001300152H 010000000000000000                                         00000000000000000000000 00000000000000000000000301010001000000000000000000000000000000                                                                                
3410001300153G 01104939558000006191469598309091810400988823252005349595000109CAIXA CONSORCIOS S.A. ADMINIST08122023000000000061914000000000000000094025609719     000000          12206122023000000000000000 00000000000000000000000000101220235
3410001300154H 010000000000000000                                         00000000000000000000000 00000000000000000000000301010001000000000000000000000000000000                                                                                
3410001300155G 01104929558000006191469598309091810400988825892005349595000109CAIXA CONSORCIOS S.A. ADMINIST08122023000000000061914000000000000000094025609879     000000          12206122023000000000000000 00000000000000000000000000101220235
3410001300156H 010000000000000000                                         00000000000000000000000 00000000000000000000000301010001000000000000000000000000000000                                                                                
3410001300157G 01104989558000009610069598309091810400988824062005349595000109CAIXA CONSORCIOS S.A. ADMINIST08122023000000000096100000000000000000094025609777     000000          12206122023000000000000000 00000000000000000000000000101220235
3410001300158H 010000000000000000                                         00000000000000000000000 00000000000000000000000301010001000000000000000000000000000000                                                                                
3410001300159G 01104919558000006191469598309091810400988826432005349595000109CAIXA CONSORCIOS S.A. ADMINIST08122023000000000061914000000000000000094025609898     000000          12206122023000000000000000 00000000000000000000000000101220235
3410001300160H 010000000000000000                                         00000000000000000000000 00000000000000000000000301010001000000000000000000000000000000                                                                                
3410001300161G 01104949558000014328169598309091810400988797152005349595000109CAIXA CONSORCIOS S.A. ADMINIST08122023000000000143281000000000000000094025608066     000000          12206122023000000000000000 00000000000000000000000000101220235
3410001300162H 010000000000000000                                         00000000000000000000000 00000000000000000000000301010001000000000000000000000000000000                                                                                
3410001300163G 01104919558000005111569598309091810400988817522005349595000109CAIXA CONSORCIOS S.A. ADMINIST08122023000000000051115000000000000000094025609364     000000          12206122023000000000000000 00000000000000000000000000101220235
3410001300164H 010000000000000000                                         00000000000000000000000 00000000000000000000000301010001000000000000000000000000000000                                                                                
3410001300165G 01104979558000007376169598309091810400988817102005349595000109CAIXA CONSORCIOS S.A. ADMINIST08122023000000000073761000000000000000094025609328     000000          12206122023000000000000000 00000000000000000000000000101220235
3410001300166H 010000000000000000                                         00000000000000000000000 00000000000000000000000301010001000000000000000000000000000000                                                                                
3410001300167G 01104919558000007376169598309091810400988816802005349595000109CAIXA CONSORCIOS S.A. ADMINIST08122023000000000073761000000000000000094025609315     000000          12206122023000000000000000 00000000000000000000000000101220235
3410001300168H 010000000000000000                                         00000000000000000000000 00000000000000000000000301010001000000000000000000000000000000                                                                                
3410001300169G 01104999558000007498469598309091810400988819812005349595000109CAIXA CONSORCIOS S.A. ADMINIST08122023000000000074984000000000000000094025609547     000000          12206122023000000000000000 00000000000000000000000000101220235
3410001300170H 010000000000000000                                         00000000000000000000000 00000000000000000000000301010001000000000000000000000000000000                                                                                
3410001300171G 01104959558000008789969598309091810400988821122005349595000109CAIXA CONSORCIOS S.A. ADMINIST08122023000000000087899000000000000000094025609578     000000          12206122023000000000000000 00000000000000000000000000101220235
3410001300172H 010000000000000000                                         00000000000000000000000 00000000000000000000000301010001000000000000000000000000000000                                                                                
3410001300173G 01104959558000006191469598309091810400988826942005349595000109CAIXA CONSORCIOS S.A. ADMINIST08122023000000000061914000000000000000094025609906     000000          12206122023000000000000000 00000000000000000000000000101220235
3410001300174H 010000000000000000                                         00000000000000000000000 00000000000000000000000301010001000000000000000000000000000000                                                                                
3410001300175G 01341949559000100035010900046063702618550010002096207956000138EMBREMAC INDUSTRIA C P A LTDA 091220230000000010003500000000000000000940686/1        002618          10106122023000000000003335 00000000000000000000000000091220231
3410001300176H 010000000000000000                                         00000000000000000000000 00000000000000000000000110122023000000000020007000000000000000                                                                                
3410001300177G 01341939561000032000015700000001285969910450002052391922000170EXCELLENCE TRUCK              11122023000000000320000000000000000000090001A          085969          10106122023000000000000107 00000000000000000000000000111220231
3410001300178H 010000000000000000                                         00000000000000000000000 00000000000000000000000111122023000000000006400000000000000000                                                                                
3410001300179G 01001979561000042000000000035040630000000027172023467144000158F GENILSON GOMES              1112202300000000042000000000000000000009903            000000          10206122023000000000000000 00000000000000000000000000050120245
3410001300180H 010000000000000000                                         00000000000000000000000 00000000000000000000000112122023000000000000106000000000000000                                                                                
3410001300181G 01001919561000004000000000035040630000000028172023467144000158F GENILSON GOMES              11122023000000000040000000000000000000091112           000000          10206122023000000000000000 00000000000000000000000000050120245
3410001300182H 010000000000000000                                         00000000000000000000000 00000000000000000000000112122023000000000000106000000000000000                                                                                
3410001300183G 01077929561000018000000011120614770011655255772035290060000170GO START DIGITAL LTDA         11122023000000000180000000000000000000094689           000000          10206122023000000000000000 00000000000000000000000000111220235
3410001300184H 012035290060000170GO START DIGITAL LTDA                    00000000000000000000000 00000000000000000000000301010001000000000000000000000000000000                                                                                
3410001300185G 01341979563000000730110900002171301452364440002024636978000102LOGIN SERV TERCEIRIZACAO ESPEC13122023000000000007301000000000000000093502P01        001453          10806122023000000000000024 00000000000000000000000000131220231
3410001300186H 010000000000000000                                         00000000000000000000000 00000000000000000000000113122023000000000000146000000000000000                                                                                
3410001300187G 01341949565000100166410900008497726330791200002027117773000109EMARTIM INFORMATICA LTDA ME   1512202300000000100166400000000000000009010098         026336          10806122023000000000000334 00000000000000000000000000151220231
3410001300188H 010000000000000000                                         00000000000000000000000 00000000000000000000000115122023000000000020033000000000000000                                                                                
3410001300189G 01341919568000027821510900077263176330333650002019713625000129ASSICOM-ASS EMPR U TECNOLOGIA 1812202300000000027821500000000000000009152366         076331          10106122023000000000000093 00000000000000000000000000181220231
3410001300190H 010000000000000000                                         00000000000000000000000 00000000000000000000000118122023000000000005564000000000000000                                                                                
3410001300191G 02001919568000004724000000028444932200714161172043052497000102DEPARTAMENTO DE ESTRADAS DE RO1812202300000000004724000000000000000009               000000          10406122023000000000000000 00000000000000000000000000181220235
3410001300192H 020000000000000000                                         00000000000000000000000 00000000000000000000000301010001000000000000000000000000000000                                                                                
3410001300193G 01001919568000004724000000028444932200714161172043052497000102DEPARTAMENTO DE ESTRADAS DE RO1812202300000000004724000000000000000009               000000          10406122023000000000000000 00000000000000000000000000181220235
3410001300194H 010000000000000000                                         00000000000000000000000 00000000000000000000000301010001000000000000000000000000000000                                                                                
3410001300195G 01341959569000020280410993018772201323007990002080680093000181SENIOR SISTEMAS SA            191220230000000002028040000000000000000979061S901      001321          10106122023000000000000067 00000000000000000000000000191220231
3410001300196H 010000000000000000                                         00000000000000000000000 00000000000000000000000119122023000000000004056000000000000000                                                                                
3410001300197G 01274999570000001285200010100156578401811470702006326025000166BUONNY PROJETOS E SERVICOS DE 2012202300000000001285200000000000000009001565784      000000          10206122023000000000000014 00000000000000000000000000191220241
3410001300198H 010000000000000000                                         00000000000000000000000 00000000000000000000000121122023000000000000257000000000000000                                                                                
3410001300199G 01341919570000420768010905479934229380663270002033337122000127IPIRANGA PRODS DE PETROLEO    20122023000000004207680000000000000000090000290566     029389          10106122023000000000015428 00000000000000000000000000201220231
3410001300200H 010000000000000000                                         00000000000000000000000 00000000000000000000000 00000000000000000000000000000000000000                                                                                
3410001300201G 01237989570000002999911000900000088169001938002030342266000183ONF CONSULTORIA E GESTAO LTDA 201220230000000000299990000000000000000938323 1        000000          10206122023000000000000010 00000000000000000000000000180220241
3410001300202H 010000000000000000                                         00000000000000000000000 00000000000000000000000221122023000000000000200000000000000000                                                                                
3410001300203G 01033999570000013000098530297000015136714701012008561701000101PAGSEGURO INTERNET INSTITUICAO2012202300000000013000000000000000000009151367147      000000          10206122023000000000000500 00000000000000000000000000190120243
3410001300204H 01204944855300010949 448 553 ELIANA VIEIRA GUIMA           00000000000000000000000 00000000000000000000000122122023000000000013000000000000000000                                                                                
3410001300205G 01033949570000005000098530297000015136676901012008561701000101PAGSEGURO INTERNET INSTITUICAO2012202300000000005000000000000000000009151366769      000000          10206122023000000000000500 00000000000000000000000000190120243
3410001300206H 01204944855300010949 448 553 ELIANA VIEIRA GUIMA           00000000000000000000000 00000000000000000000000122122023000000000005000000000000000000                                                                                
3410001300207G 01033999570000011000098530297000015136697401012008561701000101PAGSEGURO INTERNET INSTITUICAO2012202300000000011000000000000000000009151366974      000000          10206122023000000000000500 00000000000000000000000000190120243
3410001300208H 01204944855300010949 448 553 ELIANA VIEIRA GUIMA           00000000000000000000000 00000000000000000000000122122023000000000011000000000000000000                                                                                
3410001300209G 01403959571000008019500000153730310066835871012037880206000163CORA SCD SA                   2112202300000000008019500000000000000009               000000          10406122023000000000000100 00000000000000000000000000200320243
3410001300210H 012015373031000165NETOCAR AUTO ELETRICA                    00000000000000000000000 00000000000000000000000222122023000000000000200000000000000000                                                                                
3410001300211G 01403919571000008019500000153730310066835490012037880206000163CORA SCD SA                   2112202300000000008019500000000000000009               000000          10406122023000000000000100 00000000000000000000000000200320243
3410001300212H 012015373031000165NETOCAR AUTO ELETRICA                    00000000000000000000000 00000000000000000000000222122023000000000000200000000000000000                                                                                
3410001300213G 01341989572000004610010900039872206237788670002036067652000190LIDER TINTAS R PRETO LTDA     221220230000000000461000000000000000000914869-1        006239          10106122023000000000000138 00000000000000000000000000221220231
3410001300214H 010000000000000000                                         00000000000000000000000 00000000000000000000000 00000000000000000000000000000000000000                                                                                
3410001300215G 01341919574000100035010900046064502618550010002096207956000138EMBREMAC INDUSTRIA C P A LTDA 241220230000000010003500000000000000000940686/2        002618          10106122023000000000003335 00000000000000000000000000241220231
3410001300216H 010000000000000000                                         00000000000000000000000 00000000000000000000000125122023000000000020007000000000000000                                                                                
3410001300217G 01033929574000001830095443776600000000696601012060153707000160IVAN BATOCKI ROBERTO ANDRADE L24122023000000000018300000000000000000091867           000000          10206122023000000000000295 00000000000000000000000000210620243
3410001300218H 010000000000000000                                         00000000000000000000000 00000000000000000000000126122023000000000000549000000000000000                                                                                
3410001300219G 01341959575000001041315700048705407100834860002023083064000107E-MATRIZ LOCADORA VEICULOSLTDA2512202300000000001041300000000000000009270            007104          10106122023000000000000007 00000000000000000000000000251220231
3410001300220H 010000000000000000                                         00000000000000000000000 00000000000000000000000125122023000000000000208000000000000000                                                                                
3410001300221G 01341999575000003900015700048706207100834860002023083064000107E-MATRIZ LOCADORA VEICULOSLTDA2512202300000000003900000000000000000009271            007104          10106122023000000000000026 00000000000000000000000000251220231
3410001300222H 010000000000000000                                         00000000000000000000000 00000000000000000000000125122023000000000000780000000000000000                                                                                
3410001300223G 01756999575000006400013191010241555000343880012020465798000154SYG LOG SERVICOS EMPRESARIAIS 2512202300000000006400000000000000000009CTE 13786      000000          10306122023000000000000000 00000000000000000000000000210620245
3410001300224H 010000000000000000                                         00000000000000000000000 00000000000000000000000301010001000000000000000000000000000000                                                                                
3410001300225G 01341989576000001640015700000640707079944480002038007568000107MINEIRO TRUCK CENTER          26122023000000000016400000000000000000094904           007070          10106122023000000000000011 00000000000000000000000000261220231
3410001300226H 010000000000000000                                         00000000000000000000000 00000000000000000000000126122023000000000000820000000000000000                                                                                
3410001300227G 01341929576000005960015700000641507079944480002038007568000107MINEIRO TRUCK CENTER          26122023000000000059600000000000000000094905           007070          10106122023000000000000040 00000000000000000000000000261220231
3410001300228H 010000000000000000                                         00000000000000000000000 00000000000000000000000126122023000000000002980000000000000000                                                                                
3410001300229G 01341929576000001390015700000642307079944480002038007568000107MINEIRO TRUCK CENTER          26122023000000000013900000000000000000094909           007070          10106122023000000000000009 00000000000000000000000000261220231
3410001300230H 010000000000000000                                         00000000000000000000000 00000000000000000000000126122023000000000000695000000000000000                                                                                
3410001300231G 01756929576000006400013191010241555000343950012020465798000154SYG LOG SERVICOS EMPRESARIAIS 2612202300000000006400000000000000000009CTE 13797      000000          10306122023000000000000000 00000000000000000000000000220620245
3410001300232H 010000000000000000                                         00000000000000000000000 00000000000000000000000301010001000000000000000000000000000000                                                                                
3410001300233G 01237969576000002600025720933400000004007487502041561370000185TARCOVEL SERVICO E COMERCIO DE26122023000000000026000000000000000000092889           000000          10206122023000000000000000 00000000000000000000000000240220245
3410001300234H 010000000000000000                                         00000000000000000000000 00000000000000000000000127122023000000000000100000000000000000                                                                                
3410001300235G 01748919576000002050011232017120071069431461022047190182000174VALECAP SERVICOS TAUBATE LTDA 26122023000000000020500000000000000000091715           000000          10306122023000000000000048 00000000000000000000000000231220331
3410001300236H 010000000000000000                                         00000000000000000000000 00000000000000000000000227122023000000000000200000000000000000                                                                                
3410001300237G 01403969578000019000000000301956380066828450012037880206000163CORA SCD SA                   2812202300000000019000000000000000000009               000000          10406122023000000000000100 00000000000000000000000000270320243
3410001300238H 012030195638000196MVS PECAS                                00000000000000000000000 00000000000000000000000229122023000000000000200000000000000000                                                                                
3410001300239G 01341959578000022500015700043659396821004420002015407292000159POSTO DE MOLAS SANTO A EIERELI2812202300000000022500000000000000000009HHK5392241     096826          10106122023000000000000750 00000000000000000000000000281220231
3410001300240H 010000000000000000                                         00000000000000000000000 00000000000000000000000128122023000000000004500000000000000000                                                                                
3410001300241G 01341999580000010000015700000005385969910450002052391922000170EXCELLENCE TRUCK              30122023000000000100000000000000000000090002           085969          10106122023000000000000033 00000000000000000000000000301220231
3410001300242H 010000000000000000                                         00000000000000000000000 00000000000000000000000130122023000000000002000000000000000000                                                                                
3410001300243G 01341919582000002340010900039965406237788670002036067652000190LIDER TINTAS R PRETO LTDA     010120240000000000234000000000000000000915023-1        006239          10106122023000000000000070 00000000000000000000000000010120241
3410001300244H 010000000000000000                                         00000000000000000000000 00000000000000000000000 00000000000000000000000000000000000000                                                                                
3410001300245G 01341949583000031500010910043967002782531170002065939936000128ACOS ITU COM PROD SID LTDA ME 02012024000000000315000000000000000000097920043967     002782          10106122023000000000001040 00000000000000000000000000020120241
3410001300246H 010000000000000000                                         00000000000000000000000 00000000000000000000000102012024000000000009450000000000000000                                                                                
3410001300247G 01341969583000085000110910044023102782531170002065939936000128ACOS ITU COM PROD SID LTDA ME 02012024000000000850001000000000000000097920044023     002782          10106122023000000000002805 00000000000000000000000000020120241
3410001300248H 010000000000000000                                         00000000000000000000000 00000000000000000000000102012024000000000025500000000000000000                                                                                
3410001300249G 01341949583000013619010900040013006237788670002036067652000190LIDER TINTAS R PRETO LTDA     020120240000000001361900000000000000000915075-1        006239          10106122023000000000000409 00000000000000000000000000020120241
3410001300250H 010000000000000000                                         00000000000000000000000 00000000000000000000000 00000000000000000000000000000000000000                                                                                
3410001300251G 01341919583000004850010951857628229801978970002003170027000110MEGATELECOM TELECOMUNIC S A   0201202400000000004850000000000000000009E000067734     029801          10106122023000000000000078 00000000000000000000000000020120241
3410001300252H 010000000000000000                                         00000000000000000000000 00000000000000000000000102012024000000000000485000000000000000                                                                                
3410001300253G 01237969585000004333419600900000007418009663002047892320000167C   C COMERCIO DE PNEUS LTDA  0401202400000000004333400000000000000009NP0012021      000000          10206122023000000000000173 00000000000000000000000000040320241
3410001300254H 010000000000000000                                         00000000000000000000000 00000000000000000000000205012024000000000000100000000000000000                                                                                
3410001300255G 01341999585000018250011281812703021291581800002037643106000113PREMIER FOM E TEC D ATIV LTDA 0401202400000000018250000000000000000009376 A          021295          10806122023000000000000730 00000000000000000000000000040120241
3410001300256H 012037643106000113BRUNO BORGHETTI SERGIO 4590532           00000000000000000000000 00000000000000000000000 00000000000000000000000000000000000000                                                                                
3410001300257G 01033959585000189366890160255000000002526701012041613515000144WEB CARRETAS MONTAGEM IND PECA0401202400000000189366800000000000000009001222/1       000000          10206122023000000000000300 00000000000000000000000000020720243
3410001300258H 010000000000000000                                         00000000000000000000000 00000000000000000000000105012024000000000037873000000000000000                                                                                
3410001300259G 01001969586000007264100000023777150001303191172074607839000129DIPECARR DISTR DE PECAS E ACES05012024000000000072641000000000000000090003297974     000000          10206122023000000000000246 00000000000000000000000000030720241
3410001300260H 010000000000000000                                         00000000000000000000000 00000000000000000000000301010001000000000000000000000000000000                                                                                
3410001300261G 01237919586000043021204650500002144167039550002011699534000174POTTENCIAL SEGURADORA SA      05012024000000000430212000000000000000092423104-1      000000          12006122023000000000000000 00000000000000000000000000040220245
3410001300262H 010000000000000000                                         00000000000000000000000 00000000000000000000000106012024000000000000287000000000000000                                                                                
3410001300263G 01341999586000009853110901615289829380256200002059104901000176SCANIA LATIN AMERICA LTDA     0501202400000000009853100000000000000009887281         029389          10606122023000000000000049 00000000000000000000000000050120241
3410001300264H 010000000000000000                                         00000000000000000000000 00000000000000000000000 00000000000000000000000000000000000000                                                                                
3410001300265G 01756999587000018003313154010570508000216790012032607676000134MECAMPATOS PECAS E SERVICOS ME0601202400000000018003300000000000000009OS227201       000000          10206122023000000000000200 00000000000000000000000000030720243
3410001300266H 010000000000000000                                         00000000000000000000000 00000000000000000000000207012024000000000000200000000000000000                                                                                
3410001300267G 01001919587000009033400000034910720000000909172045515844000103MECANSERVICE SERVICOS MECANICO0601202400000000009033400000000000000009OS2272.01      000000          10206122023000000000000200 00000000000000000000000000050520243
3410001300268H 010000000000000000                                         00000000000000000000000 00000000000000000000000301010001000000000000000000000000000000                                                                                
3410001300269G 01341979587000013800010903183901103324695010002074539867000156SIMM COMPUTADORES E SERV LTDA 06012024000000000138000000000000000000093183901        003327          10106122023000000000000020 00000000000000000000000000060120241
3410001300270H 010000000000000000                                         00000000000000000000000 00000000000000000000000107012024000000000001380000000000000000                                                                                
3410001300271G 01341919589000032000015700000002085969910450002052391922000170EXCELLENCE TRUCK              08012024000000000320000000000000000000090001B          085969          10106122023000000000000107 00000000000000000000000000080120241
3410001300272H 010000000000000000                                         00000000000000000000000 00000000000000000000000108012024000000000006400000000000000000                                                                                
3410001300273G 01001919593000009611000000025769050000159270172003635486000122RIMA COMERCIO DE PECAS LTDA   1201202400000000009611000000000000000009578386.1       000000          20206122023000000000000288 00000000000000000000000000110420241
3410001300274H 010000000000000000                                         00000000000000000000000 00000000000000000000000301010001000000000000000000000000000000                                                                                
3410001300275G 01341949605000031500010910043968802782531170002065939936000128ACOS ITU COM PROD SID LTDA ME 24012024000000000315000000000000000000097920043968     002782          10106122023000000000001040 00000000000000000000000000240120241
3410001300276H 010000000000000000                                         00000000000000000000000 00000000000000000000000124012024000000000009450000000000000000                                                                                
3410001300277G 01341929609000022500015700043660196821004420002015407292000159POSTO DE MOLAS SANTO A EIERELI2801202400000000022500000000000000000009HHK5392241     096826          10106122023000000000000750 00000000000000000000000000280120241
3410001300278H 010000000000000000                                         00000000000000000000000 00000000000000000000000128012024000000000004500000000000000000                                                                                
3410001300279G 01341939610000085000110910044024902782531170002065939936000128ACOS ITU COM PROD SID LTDA ME 29012024000000000850001000000000000000097920044024     002782          10106122023000000000002805 00000000000000000000000000290120241
3410001300280H 010000000000000000                                         00000000000000000000000 00000000000000000000000129012024000000000025500000000000000000                                                                                
3410001300281G 01341919614000018250011281812713921291581800002037643106000113PREMIER FOM E TEC D ATIV LTDA 0202202400000000018250000000000000000009376 B          021295          10806122023000000000000730 00000000000000000000000000020220241
3410001300282H 012037643106000113BRUNO BORGHETTI SERGIO 4590532           00000000000000000000000 00000000000000000000000 00000000000000000000000000000000000000                                                                                
3410001300283G 01237999615000004333319600900000007419009663002047892320000167C   C COMERCIO DE PNEUS LTDA  0302202400000000004333300000000000000009NP0012022      000000          10206122023000000000000173 00000000000000000000000000030420241
3410001300284H 010000000000000000                                         00000000000000000000000 00000000000000000000000204022024000000000000100000000000000000                                                                                
3410001300285G 01033979615000189366690160255000000002527501012041613515000144WEB CARRETAS MONTAGEM IND PECA0302202400000000189366600000000000000009001222/2       000000          10206122023000000000000300 00000000000000000000000000010820243
3410001300286H 010000000000000000                                         00000000000000000000000 00000000000000000000000104022024000000000037873000000000000000                                                                                
3410001300287G 01001919617000007261800000023777150001303192172074607839000129DIPECARR DISTR DE PECAS E ACES05022024000000000072618000000000000000090003297975     000000          10206122023000000000000246 00000000000000000000000000030820241
3410001300288H 010000000000000000                                         00000000000000000000000 00000000000000000000000301010001000000000000000000000000000000                                                                                
3410001300289G 01341949617000032000015700000003885969910450002052391922000170EXCELLENCE TRUCK              05022024000000000320000000000000000000090001C          085969          10106122023000000000000107 00000000000000000000000000050220241
3410001300290H 010000000000000000                                         00000000000000000000000 00000000000000000000000105022024000000000006400000000000000000                                                                                
3410001300291G 01237939617000043020804650500002144171039550002011699534000174POTTENCIAL SEGURADORA SA      05022024000000000430208000000000000000092423104-2      000000          12006122023000000000000000 00000000000000000000000000060320245
3410001300292H 010000000000000000                                         00000000000000000000000 00000000000000000000000106022024000000000000287000000000000000                                                                                
3410001300293G 01756929618000018003313154010570508000216860022032607676000134MECAMPATOS PECAS E SERVICOS ME0602202400000000018003300000000000000009OS2272-02      000000          10206122023000000000000200 00000000000000000000000000031220333
3410001300294H 010000000000000000                                         00000000000000000000000 00000000000000000000000207022024000000000000200000000000000000                                                                                
3410001300295G 01001999618000009033300000034910720000000910172045515844000103MECANSERVICE SERVICOS MECANICO0602202400000000009033300000000000000009OS2272.02      000000          10206122023000000000000200 00000000000000000000000000050620243
3410001300296H 010000000000000000                                         00000000000000000000000 00000000000000000000000301010001000000000000000000000000000000                                                                                
3410001300297G 01341969618000013800010903183902903324695010002074539867000156SIMM COMPUTADORES E SERV LTDA 06022024000000000138000000000000000000093183902        003327          10106122023000000000000020 00000000000000000000000000060220241
3410001300298H 010000000000000000                                         00000000000000000000000 00000000000000000000000107022024000000000001380000000000000000                                                                                
3410001300299G 01001959624000009611000000025769050000159271172003635486000122RIMA COMERCIO DE PECAS LTDA   1202202400000000009611000000000000000009578386.2       000000          20206122023000000000000288 00000000000000000000000000120520241
3410001300300H 010000000000000000                                         00000000000000000000000 00000000000000000000000301010001000000000000000000000000000000                                                                                
3410001300301G 01341939640000022500015700043661996821004420002015407292000159POSTO DE MOLAS SANTO A EIERELI2802202400000000022500000000000000000009HHK5392241     096826          10106122023000000000000750 00000000000000000000000000280220241
3410001300302H 010000000000000000                                         00000000000000000000000 00000000000000000000000128022024000000000004500000000000000000                                                                                
3410001300303G 01237969645000004333319600900000007420009663002047892320000167C   C COMERCIO DE PNEUS LTDA  0403202400000000004333300000000000000009NP0012023      000000          10206122023000000000000173 00000000000000000000000000030520241
3410001300304H 010000000000000000                                         00000000000000000000000 00000000000000000000000205032024000000000000100000000000000000                                                                                
3410001300305G 01341929645000032000015700000004685969910450002052391922000170EXCELLENCE TRUCK              04032024000000000320000000000000000000090001D          085969          10106122023000000000000107 00000000000000000000000000040320241
3410001300306H 010000000000000000                                         00000000000000000000000 00000000000000000000000104032024000000000006400000000000000000                                                                                
3410001300307G 01033959645000189366690160255000000002528301012041613515000144WEB CARRETAS MONTAGEM IND PECA0403202400000000189366600000000000000009001222/3       000000          10206122023000000000000300 00000000000000000000000000310820243
3410001300308H 010000000000000000                                         00000000000000000000000 00000000000000000000000105032024000000000037873000000000000000                                                                                
3410001300309G 01001969646000007261800000023777150001303193172074607839000129DIPECARR DISTR DE PECAS E ACES05032024000000000072618000000000000000090003297976     000000          10206122023000000000000246 00000000000000000000000000010920241
3410001300310H 010000000000000000                                         00000000000000000000000 00000000000000000000000301010001000000000000000000000000000000                                                                                
3410001300311G 01237919646000043020804650500002144172039550002011699534000174POTTENCIAL SEGURADORA SA      05032024000000000430208000000000000000092423104-3      000000          12006122023000000000000000 00000000000000000000000000040420245
3410001300312H 010000000000000000                                         00000000000000000000000 00000000000000000000000106032024000000000000287000000000000000                                                                                
3410001300313G 01756949647000018003413154010570508000216930032032607676000134MECAMPATOS PECAS E SERVICOS ME0603202400000000018003400000000000000009OS2272-03      000000          10206122023000000000000200 00000000000000000000000000031220333
3410001300314H 010000000000000000                                         00000000000000000000000 00000000000000000000000207032024000000000000200000000000000000                                                                                
3410001300315G 01001939647000009033300000034910720000000911172045515844000103MECANSERVICE SERVICOS MECANICO0603202400000000009033300000000000000009OS2272.03      000000          10206122023000000000000200 00000000000000000000000000040720243
3410001300316H 010000000000000000                                         00000000000000000000000 00000000000000000000000301010001000000000000000000000000000000                                                                                
3410001300317G 01341979669000022500015700043662796821004420002015407292000159POSTO DE MOLAS SANTO A EIERELI2803202400000000022500000000000000000009HHK5392241     096826          10106122023000000000000750 00000000000000000000000000280320241
3410001300318H 010000000000000000                                         00000000000000000000000 00000000000000000000000128032024000000000004500000000000000000                                                                                
3410001300319G 01237979677000043020804650500002144173039550002011699534000174POTTENCIAL SEGURADORA SA      05042024000000000430208000000000000000092423104-4      000000          12006122023000000000000000 00000000000000000000000000050520245
3410001300320H 010000000000000000                                         00000000000000000000000 00000000000000000000000106042024000000000000287000000000000000                                                                                
3410001300321G 01237979707000043020804650500002144174039550002011699534000174POTTENCIAL SEGURADORA SA      05052024000000000430208000000000000000092423104-5      000000          12006122023000000000000000 00000000000000000000000000040620245
3410001300322H 010000000000000000                                         00000000000000000000000 00000000000000000000000106052024000000000000287000000000000000                                                                                
3410001300323G 01237949738000043020804650500002144175039550002011699534000174POTTENCIAL SEGURADORA SA      05062024000000000430208000000000000000092423104-6      000000          12006122023000000000000000 00000000000000000000000000050720245
3410001300324H 010000000000000000                                         00000000000000000000000 00000000000000000000000106062024000000000000287000000000000000                                                                                
3410001300325G 01237969768000043020804650500002144176039550002011699534000174POTTENCIAL SEGURADORA SA      05072024000000000430208000000000000000092423104-7      000000          12006122023000000000000000 00000000000000000000000000040820245
3410001300326H 010000000000000000                                         00000000000000000000000 00000000000000000000000106072024000000000000287000000000000000                                                                                
3410001300327G 01237939799000043020804650500002144177039550002011699534000174POTTENCIAL SEGURADORA SA      05082024000000000430208000000000000000092423104-8      000000          12006122023000000000000000 00000000000000000000000000040920245
3410001300328H 010000000000000000                                         00000000000000000000000 00000000000000000000000106082024000000000000287000000000000000                                                                                
3410001300329G 01237999830000043020804650500002144178039550002011699534000174POTTENCIAL SEGURADORA SA      05092024000000000430208000000000000000092423104-9      000000          12006122023000000000000000 00000000000000000000000000051020245
3410001300330H 010000000000000000                                         00000000000000000000000 00000000000000000000000106092024000000000000287000000000000000                                                                                
3410001300331G 01237959860000043020804650500002144168039550002011699534000174POTTENCIAL SEGURADORA SA      05102024000000000430208000000000000000092423104-10     000000          12006122023000000000000000 00000000000000000000000000041120245
3410001300332H 010000000000000000                                         00000000000000000000000 00000000000000000000000106102024000000000000287000000000000000                                                                                
3410001300333G 01237929891000043020804650500002144169039550002011699534000174POTTENCIAL SEGURADORA SA      05112024000000000430208000000000000000092423104-11     000000          12006122023000000000000000 00000000000000000000000000051220245
3410001300334H 010000000000000000                                         00000000000000000000000 00000000000000000000000106112024000000000000287000000000000000                                                                                
3410001300335G 01237989921000043020804650500002144170039550002011699534000174POTTENCIAL SEGURADORA SA      05122024000000000430208000000000000000092423104-12     000000          12006122023000000000000000 00000000000000000000000000040120255
3410001300336H 010000000000000000                                         00000000000000000000000 00000000000000000000000106122024000000000000287000000000000000                                                                                
34100015         000338000000000076952393000000000000000000                                                                                                                                                                                     
34100021I0300022 2015665528000238                    00000 000000000000  CARGO POLO C L T EIRELI                                                                                                                                                
3410002300001G 01341999585000006000010900001205392489912350002043054791000145KM PNEUS                      0401202400000000006000000000000000000009740-1          092486          10106122023000000000000078 00000000000000000000000000040120241
3410002300002H 010000000000000000                                         00000000000000000000000 00000000000000000000000105012024000000000001200000000000000000                                                                                
3410002300003G 01341979585000004000010900001206192489912350002043054791000145KM PNEUS                      0401202400000000004000000000000000000009741-1          092486          10106122023000000000000052 00000000000000000000000000040120241
3410002300004H 010000000000000000                                         00000000000000000000000 00000000000000000000000105012024000000000000800000000000000000                                                                                
3410002300005G 01341989585000004000010900001214592489912350002043054791000145KM PNEUS                      0401202400000000004000000000000000000009744-1          092486          10106122023000000000000052 00000000000000000000000000040120241
3410002300006H 010000000000000000                                         00000000000000000000000 00000000000000000000000105012024000000000000800000000000000000                                                                                
34100025         000008000000000000140000000000000000000000                                                                                                                                                                                     
34100031I0300022 2015665528000408                    00000 000000000000  CARGO POLO C L T EIRELI                                                                                                                                                
3410003300001G 01341919560000004695610900039007248483440000002011661244000131BITWAY DO BRASIL LTDA - ME    101220230000000000469560000000000000000939007          048488          10106122023000000000000006 00000000000000000000000000101220231
3410003300002H 010000000000000000                                         00000000000000000000000 00000000000000000000000111122023000000000000939000000000000000                                                                                
34100035         000004000000000000046956000000000000000000                                                                                                                                                                                     
34100041I0300022 2015665528000580                    00000 000000000000  CARGO POLO C L T EIRELI                                                                                                                                                
3410004300001G 01341929586000008500010900359200642972073930002001758256000125OK BATERIAS LTDA              050120240000000000850000000000000000000900359200       042978          10106122023000000000000043 00000000000000000000000000050120241
3410004300002H 010000000000000000                                         00000000000000000000000 00000000000000000000000105012024000000000001700000000000000000                                                                                
3410004300003G 01341919616000008500010900359201442972073930002001758256000125OK BATERIAS LTDA              040220240000000000850000000000000000000900359201       042978          10106122023000000000000043 00000000000000000000000000040220241
3410004300004H 010000000000000000                                         00000000000000000000000 00000000000000000000000104022024000000000001700000000000000000                                                                                
34100045         000006000000000000170000000000000000000000                                                                                                                                                                                     
34100051I0300022 2015665528000742                    00000 000000000000  CARGO POLO C L T EIRELI                                                                                                                                                
3410005300001G 01341979576000535940010905479615729380663270002033337122000127IPIRANGA PRODS DE PETROLEO    26122023000000005359400000000000000000090000290522     029389          10106122023000000000019651 00000000000000000000000000261220231
3410005300002H 010000000000000000                                         00000000000000000000000 00000000000000000000000 00000000000000000000000000000000000000                                                                                
34100055         000004000000000005359400000000000000000000                                                                                                                                                                                     
34100061I0300022 2015665528001048                    00000 000000000000  CARGO POLO C L T EIRELI                                                                                                                                                
3410006300001G 01341929574000009950010900006289902024185050002000139775000142RIBEIRO FREIOS EIRELI         2412202300000000009950000000000000000009025813/1       002022          11006122023000000000000166 00000000000000000000000000241220231
3410006300002H 010000000000000000                                         00000000000000000000000 00000000000000000000000 00000000000000000000000000000000000000                                                                                
3410006300003G 01341979577000011046610910634408680200158740002060672441000161PIQUERI COM DIST AUTO PEC LTD 27122023000000000110466000000000000000090619857/A      080200          10106122023000000000000298 00000000000000000000000000271220231
3410006300004H 010000000000000000                                         00000000000000000000000 00000000000000000000000 00000000000000000000000000000000000000                                                                                
3410006300005G 01341919583000001269010910054667006123007310002000392776000102ROLAMAR PECAS ACESS V LTDA    0201202400000000001269000000000000000009000266/        006122          10106122023000000000000021 00000000000000000000000000020120241
3410006300006H 010000000000000000                                         00000000000000000000000 00000000000000000000000 00000000000000000000000000000000000000                                                                                
3410006300007G 01341989583000024840010910054668806123007310002000392776000102ROLAMAR PECAS ACESS V LTDA    0201202400000000024840000000000000000009000266/        006122          10106122023000000000000414 00000000000000000000000000020120241
3410006300008H 010000000000000000                                         00000000000000000000000 00000000000000000000000 00000000000000000000000000000000000000                                                                                
3410006300009G 01341979583000011780010910054669606123007310002000392776000102ROLAMAR PECAS ACESS V LTDA    0201202400000000011780000000000000000009000266/        006122          10106122023000000000000196 00000000000000000000000000020120241
3410006300010H 010000000000000000                                         00000000000000000000000 00000000000000000000000 00000000000000000000000000000000000000                                                                                
3410006300011G 01341979583000002100010910054670406123007310002000392776000102ROLAMAR PECAS ACESS V LTDA    0201202400000000002100000000000000000009000266/        006122          10106122023000000000000035 00000000000000000000000000020120241
3410006300012H 010000000000000000                                         00000000000000000000000 00000000000000000000000 00000000000000000000000000000000000000                                                                                
3410006300013G 01341929583000006324010910054671206123007310002000392776000102ROLAMAR PECAS ACESS V LTDA    0201202400000000006324000000000000000009000266/        006122          10106122023000000000000105 00000000000000000000000000020120241
3410006300014H 010000000000000000                                         00000000000000000000000 00000000000000000000000 00000000000000000000000000000000000000                                                                                
3410006300015G 01341919583000002070010910054672006123007310002000392776000102ROLAMAR PECAS ACESS V LTDA    0201202400000000002070000000000000000009000266/        006122          10106122023000000000000035 00000000000000000000000000020120241
3410006300016H 010000000000000000                                         00000000000000000000000 00000000000000000000000 00000000000000000000000000000000000000                                                                                
3410006300017G 01341989583000014100010910054683706123007310002000392776000102ROLAMAR PECAS ACESS V LTDA    0201202400000000014100000000000000000009000266/        006122          10106122023000000000000235 00000000000000000000000000020120241
3410006300018H 010000000000000000                                         00000000000000000000000 00000000000000000000000 00000000000000000000000000000000000000                                                                                
3410006300019G 01341979583000003120010910054687806123007310002000392776000102ROLAMAR PECAS ACESS V LTDA    0201202400000000003120000000000000000009000266/        006122          10106122023000000000000052 00000000000000000000000000020120241
3410006300020H 010000000000000000                                         00000000000000000000000 00000000000000000000000 00000000000000000000000000000000000000                                                                                
3410006300021G 01341979584000021300010910054692806123007310002000392776000102ROLAMAR PECAS ACESS V LTDA    0301202400000000021300000000000000000009000266/        006122          10106122023000000000000355 00000000000000000000000000030120241
3410006300022H 010000000000000000                                         00000000000000000000000 00000000000000000000000 00000000000000000000000000000000000000                                                                                
3410006300023G 01341929584000015000010990375493406123263300002010653631000163ZAGAR COMERCIO F F LTDA       0301202400000000015000000000000000000009000225424      006122          10106122023000000000000250 00000000000000000000000000030120241
3410006300024H 010000000000000000                                         00000000000000000000000 00000000000000000000000 00000000000000000000000000000000000000                                                                                
3410006300025G 01341939584000011000010990375494206123263300002010653631000163ZAGAR COMERCIO F F LTDA       0301202400000000011000000000000000000009000225425      006122          10106122023000000000000183 00000000000000000000000000030120241
3410006300026H 010000000000000000                                         00000000000000000000000 00000000000000000000000 00000000000000000000000000000000000000                                                                                
3410006300027G 01341929584000027800010990375495906123263300002010653631000163ZAGAR COMERCIO F F LTDA       0301202400000000027800000000000000000009000225426      006122          10106122023000000000000463 00000000000000000000000000030120241
3410006300028H 010000000000000000                                         00000000000000000000000 00000000000000000000000 00000000000000000000000000000000000000                                                                                
3410006300029G 01341959584000008204910990375497506123263300002010653631000163ZAGAR COMERCIO F F LTDA       0301202400000000008204900000000000000009000225446      006122          10106122023000000000000137 00000000000000000000000000030120241
3410006300030H 010000000000000000                                         00000000000000000000000 00000000000000000000000 00000000000000000000000000000000000000                                                                                
3410006300031G 01341929586000007340010900113505429385722090002018703805000167VIA TRUCKS SP COME CAMI LTDA  05012024000000000073400000000000000000090021773001     029389          10106122023000000000000144 00000000000000000000000000050120241
3410006300032H 010000000000000000                                         00000000000000000000000 00000000000000000000000 00000000000000000000000000000000000000                                                                                
3410006300033G 01341919605000011046710910634409480200158740002060672441000161PIQUERI COM DIST AUTO PEC LTD 24012024000000000110467000000000000000090619857/B      080200          10106122023000000000000298 00000000000000000000000000240120241
3410006300034H 010000000000000000                                         00000000000000000000000 00000000000000000000000 00000000000000000000000000000000000000                                                                                
3410006300035G 01341959617000007340010900113506229385722090002018703805000167VIA TRUCKS SP COME CAMI LTDA  05022024000000000073400000000000000000090021773002     029389          10106122023000000000000144 00000000000000000000000000050220241
3410006300036H 010000000000000000                                         00000000000000000000000 00000000000000000000000 00000000000000000000000000000000000000                                                                                
3410006300037G 01341939633000011046710910634410280200158740002060672441000161PIQUERI COM DIST AUTO PEC LTD 21022024000000000110467000000000000000090619857/C      080200          10106122023000000000000298 00000000000000000000000000210220241
3410006300038H 010000000000000000                                         00000000000000000000000 00000000000000000000000 00000000000000000000000000000000000000                                                                                
3410006300039G 01341939646000007352510900113507029385722090002018703805000167VIA TRUCKS SP COME CAMI LTDA  05032024000000000073525000000000000000090021773003     029389          10106122023000000000000145 00000000000000000000000000050320241
3410006300040H 010000000000000000                                         00000000000000000000000 00000000000000000000000 00000000000000000000000000000000000000                                                                                
34100065         000042000000000002140304000000000000000000                                                                                                                                                                                     
34100071I0300022 2015665528001200                    00000 000000000000  CARGO POLO C L T EIRELI                                                                                                                                                
3410007300001G 01341989578000006300015700045358937305857530002032720081000190PR TRUCKS S E E E LTDA        28122023000000000063000000000000000000095310/3449      037309          10806122023000000000000021 00000000000000000000000000281220231
3410007300002H 010000000000000000                                         00000000000000000000000 00000000000000000000000128122023000000000001260000000000000000                                                                                
3410007300003G 01341919578000008300015700045359737305857530002032720081000190PR TRUCKS S E E E LTDA        28122023000000000083000000000000000000095311           037309          10806122023000000000000028 00000000000000000000000000281220231
3410007300004H 010000000000000000                                         00000000000000000000000 00000000000000000000000128122023000000000001660000000000000000                                                                                
3410007300005G 01341939578000017600015700045360537305857530002032720081000190PR TRUCKS S E E E LTDA        28122023000000000176000000000000000000095312           037309          10806122023000000000000059 00000000000000000000000000281220231
3410007300006H 010000000000000000                                         00000000000000000000000 00000000000000000000000128122023000000000003520000000000000000                                                                                
3410007300007G 01341999583000009906010900004153338119956080002027259458000205LF COM DE EPIS LTDA           020120240000000000990600000000000000000900419401       038117          10106122023000000000000327 00000000000000000000000000020120241
3410007300008H 010000000000000000                                         00000000000000000000000 00000000000000000000000102012024000000000001981000000000000000                                                                                
3410007300009G 01341959611000009906010900004154138119956080002027259458000205LF COM DE EPIS LTDA           300120240000000000990600000000000000000900419402       038117          10106122023000000000000327 00000000000000000000000000300120241
3410007300010H 010000000000000000                                         00000000000000000000000 00000000000000000000000130012024000000000001981000000000000000                                                                                
